:020000040800F2
:1000000078A20020C1780008F9050008FB05000867
:10001000FF050008030600080706000800000000AE
:100020000000000000000000000000000B060008B7
:100030000D060008000000000F0600081106000869
:10004000DB780008DB780008DB780008DB78000844
:10005000DB780008DB780008DB780008DB78000834
:10006000DB780008DB780008DB780008DB78000824
:10007000DB780008DB780008DB780008DB78000814
:10008000DB780008DB780008DB780008DB78000804
:10009000DB780008DB780008DB780008DB780008F4
:1000A000DB780008DB780008DB780008DB780008E4
:1000B000DB780008DB780008DB780008DB780008D4
:1000C000DB780008DB780008DB780008DB780008C4
:1000D000DB78000837780008DB780008DB78000858
:1000E000DB780008DB780008DB780008DB780008A4
:1000F000DB780008DB780008DB780008DB78000894
:10010000DB780008DB780008DB780008DB78000883
:10011000DB780008DB780008DB780008DB78000873
:10012000DB780008DB780008DB780008DB78000863
:1001300000F002F800F063F80AA090E8000C824496
:100140008344AAF10107DA4501D100F058F8AFF273
:10015000090EBAE80F0013F0010F18BFFB1A43F0A5
:1001600001031847FCC700001CC8000010F8013B41
:100170000A4413F0030408BF10F8014B1D1108BF17
:1001800010F8015B641E05D010F8016B641E01F8C5
:10019000016BF9D1002D15D010F8014B03F00C03C1
:1001A0000C2BA1EB04040ABF10F8013BA4EB831451
:1001B000A4EB032405F1010314F8016B5B1E01F8A5
:1001C000016BF9D5914238BF10F8013BD1D370478C
:1001D0000023002400250026103A28BF78C1FBD850
:1001E000520728BF30C148BF0B607047782909F01B
:1001F0009985002070471FB51FBD10B510BD09F0CF
:100200005BFE1146FFF7F7FF00F0BCF809F079FE3E
:1002100003B4FFF7F2FF03BC07F0B2FA2DE9F04F89
:1002200087B000244EE0E04830F8240005B2DE48F4
:1002300050F82400000C06B228460AF0C9FD80469A
:100240004FF089410AF024FE07464FF08E410AF034
:10025000C1FC814630460AF0BBFD80464FF0894123
:100260000AF016FE07464FF08E410AF0B3FC8246B4
:10027000514650460AF00CFE4946019048460AF0A5
:1002800007FE009001990AF037FC83460AF008FC4B
:10029000CDE9020109F03EFE0022C44BCDE9040184
:1002A00009F044FF074609F05BFE06904FF08F41CE
:1002B00006980AF0EDFD07460AF06AFDBC4921F8F0
:1002C0001400641CB4F5007FADD307B0BDE8F08F17
:1002D0002DE9F04F87B000244EE0B64830F82400F6
:1002E00005B2B44850F82400000C06B228460AF0C3
:1002F0006FFD80464FF089410AF0CAFD07464FF076
:100300008E410AF067FC814630460AF061FD804666
:100310004FF089410AF0BCFD07464FF08E410AF0CC
:1003200059FC8246514650460AF0B2FD49460190BA
:1003300048460AF0ADFD009001990AF0DDFB8346C6
:100340000AF0AEFBCDE9020109F0E4FD0022974B73
:10035000CDE9040109F0EAFE074609F001FE069026
:100360004FF08F4106980AF093FD07460AF010FD02
:10037000914921F81400641CB4F5007FADD307B097
:10038000BDE8F08F1CB54FF4A06008F03DF807F011
:100390008DF94FF4165007F002FA01F0EBFB02F072
:1003A00074FF07F0A7F807F031F807F021F9FAE039
:1003B0000020824908602FE0032007F069F8804997
:1003C0000880098842F2107201FB02F00AF033F84B
:1003D00006464FF066327B4B0AF094F880460022C6
:1003E000794B09F0A3FE04460022784B0AF06EFA1E
:1003F000824609F0B5FD76490860084600680AF0B3
:10040000ABFC000473496D4A126841F822006B4846
:100410000068401C6949086068480068B0F5806F52
:10042000CADB642007F07FF94FF4806269496148B4
:1004300008F046FBFFF74CFF5F4948880AF0E0FCF4
:100440006549086001205D49086038E05A495B4A07
:10045000126831F812000AF0D3FC04465E480168C5
:1004600020460AF0E1FD25D253485449096830F886
:10047000111052480068401E4F4A32F81000814265
:1004800018DD10464D49096830F8112001464B48E7
:100490000068401C31F8100082420BDD474A1268A8
:1004A00031F812000AF0ACFC4B4908604348006880
:1004B0004A49086041480068401C404908603F487C
:1004C000006840F2FF318842C0DB454800680128DF
:1004D00006D142480068434908600020404908604E
:1004E0003E4801683F480068401C81420ADC3D48A4
:1004F0000068401E39490968884203DC3A480068B0
:10050000012818D1344800680AF0CAFA06460022C9
:10051000364B09F00BFE044609F022FD3449086011
:100520002E48006840002C214843324908600120D1
:100530002B49086022E0284800680AF0B1FA80469A
:1005400000222A4B09F0F2FD04460D4628480068B7
:100550000AF0A6FA064622462B4609F097FF0DD26E
:100560001D4800680AF09CFA064600221F4B09F05D
:10057000DDFD044609F0F4FC1D49086000201A491D
:1005800008604FF4FA7007F0CEF80121194800888E
:1005900080B2CDE900011748008881B20023012212
:1005A000104600F034FA03E7BC1000200000904031
:1005B000BC300020BC200020BC380020F80F0020F8
:1005C000F60F002066660A400000B040006AC8408E
:1005D00030100020BC5000203410002008100020F3
:1005E000101000201C100020281000200088C3409C
:1005F000F00F00200C100020704700BFFEE700BF86
:10060000FEE700BFFEE700BFFEE770477047704798
:10061000704700000CB50020019000906C48006805
:1006200040F480306A49086000BF6948006800F4FF
:10063000003000900198401C0190009818B9019872
:10064000B0F5A06FF1D16248006800F4003010B13D
:100650000120009001E0002000900098012843D183
:100660005C48006840F010005A490860084600687D
:1006700020F0030008600846006840F002000860AF
:1006800053484068524948600846406848600846F8
:10069000406840F4806048600846406820F47C1060
:1006A00048600846406840F4E81048600846006822
:1006B00040F08070086000BF4548006800F000709E
:1006C0000028F9D04248406820F0030040494860C3
:1006D0000846406840F00200486000BF3C4840685F
:1006E00000F00C000828F9D10CBD10B5FFF792FFFF
:1006F00010BD10B53648006840F00100344908606C
:100700000846406834490840314948600846006856
:10071000324908402E4908600846006820F48020CD
:1007200008600846406820F4FE0048604FF41F004F
:100730008860FFF7DAFF4FF000602949086010BDBC
:1007400010B5002100200022214B5B6803F00C0152
:1007500021B1042906D0082928D107E0214B224CD9
:10076000236027E01F4B204C236023E0184B5B687D
:1007700003F47010164B5B6803F48032022303EB22
:10078000904022B9194B4343174C23600DE0104BA6
:100790005B6803F4003323B1144B4343124C2360D2
:1007A00003E0104B4343104C236003E00D4B0E4C11
:1007B000236000BF00BF064B5B68C3F303130C4C00
:1007C000E15C094B1B68CB40074C236010BD000067
:1007D00000100240002002400000FFF8FFFFF6FE7C
:1007E00008ED00E000127A004010002000093D00F2
:1007F000441000202DE9FC5F8B464FF0000A00BF3B
:100800001CE0B14931F81A0009F02CFE04460D46EF
:10081000AE4800680AF044F9AD4AAE4BCDE900019C
:1008200009F070FE064622462B4609F06BFE804614
:1008300009F0D4FD2BF81A000AF1010ABAF1200FD1
:10084000DFDBBDE8FC9F2DE9FF4781468A46002497
:100850001AE0204609F006FE00229F4BCDE9000178
:1008600009F050FE074600229C4B09F05FFC05464C
:1008700000229B4B09F046FECDE9020109F0AEFDD6
:100880002AF81400601C84B24C45E2DBBDE8FF8707
:1008900038B505460C460121042007F04DFB102019
:1008A0008DF8030003208DF8020035B11020ADF85B
:1008B000000010218B4807F030F934B12020ADF84A
:1008C00000002021874807F028F96946854807F08D
:1008D00077F838BD7FB505460C460121480707F07B
:1008E00038FB684608F048F8002001900220039089
:1008F0006DB1242000906946002008F026F80121FF
:10090000002008F03FF80121002008F04CF86CB1FD
:10091000042000906946102008F017F801211020EB
:1009200008F030F80121102008F03DF87FBDFEB539
:1009300006460C4617461D461CB10121084607F025
:1009400008FB1DB10121102007F003FB684600F0F1
:10095000D9FC0020ADF80000ADF80600ADF80200AB
:1009600054B1B0B2ADF8040069465F4800F09EF99A
:100970002021480600F06FFF5DB1B8B2ADF8040069
:1009800069464FF0804000F091F92021564800F070
:1009900062FFFEBDF0B58BB004460F4615461E46FD
:1009A0000121022007F0BBFA684601F079F8102017
:1009B00002902020039000200490802005904000A9
:1009C0000690800007904FF44050099000200A9054
:1009D0002020089057B1454800900194694644484A
:1009E00001F040F80121424801F067F86EB13F483C
:1009F0000C300090019569463D48143001F032F802
:100A000001213B48143001F058F80BB0F0BD2DE93E
:100A1000FC5F8046894614469A46DDE90CB53548A8
:100A2000B0FBF9F080B201903248B0FBFBF080B22D
:100A3000009031492020FFF7DDFE30492020FFF7EC
:100A400002FF2CB1B8F1000F01D12B4E00E02B4E6C
:100A50002DB1BAF1000F01D1274F00E0274F01213E
:100A60000846FFF715FF2B462146DDE90020FFF77A
:100A70005EFF29462046FFF72DFF2B463A462146CA
:100A80003046FFF787FF1CB10121880700F06AFCA0
:100A90001DB10121144800F065FCBDE8FC9F2DE963
:100AA000F04104460E4614B94FF0804502E0012C97
:100AB00000D10D4D124890FBF6F087B2394628461A
:100AC00000F0E6FEBDE8F08154100020F00F002099
:100AD000CDCCCCCCCCCCF43F0000F03F00E06F405C
:100AE00000FEAF40000801400010004008740040C4
:100AF0003004024010552200BC600020FC60002041
:100B0000882A110010B50446FE48844208D101210C
:100B1000C01407F02BFA0021E01407F027FAC4E014
:100B2000B4F1804F08D10121084607F02CFA0021CA
:100B3000012007F028FAB8E0F348844208D10121E7
:100B4000022007F020FA0021022007F01CFAACE096
:100B5000EE48844208D10121042007F014FA002154
:100B6000042007F010FAA0E0E948844208D10121EE
:100B7000082007F008FA0021082007F004FA94E0A2
:100B8000E448844208D10121102007F0FCF900213B
:100B9000102007F0F8F988E0DF48844208D10121ED
:100BA000202007F0F0F90021202007F0ECF97CE08C
:100BB000DA48844208D10121401407F0D7F9002116
:100BC000601407F0D3F970E0D548844209D10121BF
:100BD000C80407F0CBF900214FF4002007F0C6F954
:100BE00063E0D048844209D10121080507F0BEF92D
:100BF00000214FF4801007F0B9F956E0CA4884424A
:100C000009D10121480507F0B1F900214FF4001086
:100C100007F0ACF949E0C548844208D101214020E1
:100C200007F0B1F90021402007F0ADF93DE0C048E0
:100C3000844208D10121802007F0A5F900218020FD
:100C400007F0A1F931E0BB48844208D101218015A9
:100C500007F099F90021A01507F095F925E0B648AD
:100C6000844209D10121080407F080F900214FF4E2
:100C7000803007F07BF918E0B048844209D10121A7
:100C8000480407F073F900214FF4003007F06EF9C3
:100C90000BE0AB48844208D10121880407F066F9D3
:100CA00000214FF4802007F061F910BD0022028876
:100CB000944B98420ED0994B98420BD0B0F1804F94
:100CC00008D0914B984205D0904B984202D0904B5F
:100CD000984204D14FF68F731A404B881A438D4BBC
:100CE000984207D08C4B984204D04FF6FF431A40ED
:100CF000CB881A4302808B8883850B880385814BC0
:100D000098420BD0854B984208D08B4B984205D027
:100D10008A4B984202D08A4B984201D10B7A0386C3
:100D200001238382704770B5002400220023058CC4
:100D30004FF6FE7635400584028C8388048B4FF68F
:100D40008F752C40B51E2C400D882C43751E2A40F3
:100D50000D892A434D882A436A4DA8420BD06F4D16
:100D6000A84208D0744DA84205D0744DA84202D0C4
:100D7000734DA84213D14FF6F7752A404D892A4387
:100D80004FF6FB752A408D882A434FF6FF652B40AE
:100D90004FF6FF552B408D892B43CD892B43838004
:100DA0000483CD888586028470BD70B5002400223E
:100DB0000023058C4FF6EF7635400584028C83883E
:100DC000048B48F6FF752C404FF6FF452C400D88EC
:100DD0004FF6FF7606EA05252C434FF6DF752A40CD
:100DE0000D8906EA05152A434D8806EA05152A43AA
:100DF000444DA84202D0494DA8421DD14FF67F75FF
:100E00002A404D894FF6FF7606EA05152A434FF62C
:100E1000BF752A408D8806EA05152A434FF6FF352F
:100E20002B404FF2FF752B408D8906EA85052B4339
:100E3000CD8906EA85052B4383800483CD88058709
:100E4000028470BD70B5002400220023058C4FF68B
:100E5000FF6635400584028C8388848B4FF68F753E
:100E60002C404FF6FC752C400D882C434FF6FF5557
:100E70002A400D894FF6FF7606EA05252A434D885C
:100E800006EA05252A431F4DA84202D0234DA84259
:100E90001DD14FF2FF752A404D894FF6FF7606EAC5
:100EA00005252A434FF6FF352A408D8806EA052599
:100EB0002A434EF6FF752B404DF6FF752B408D896A
:100EC00006EA05152B43CD8906EA05152B438380D9
:100ED0008483CD888587028470BD70B5002200238D
:100EE0000024058C4EF6FF7635400584038C8488FB
:100EF000828B48F6FF752A404FF6FF452A400D8841
:100F000020E00000002C01400004004000080040E8
:100F1000000C00400010004000140040003401406C
:100F2000004C0140005001400054014000180040B6
:100F3000001C0040002000400040014000440140EF
:100F4000004801404FF6FF7606EA05252A434DF694
:100F5000FF752B400D8906EA05352B434D8806EABF
:100F600005352B43FA4DA84202D0FA4DA84208D1CC
:100F70004BF6FF752C408D894FF6FF7606EA8515F6
:100F80002C4384808283CD88A0F84050038470BDB8
:100F9000828B4FF2FF331A408283828B4FF6FF73AE
:100FA00003EA01231A4382837047F0B50C461546C5
:100FB000002200210026078C4EF6FF7C07EA0C0772
:100FC0000784828B018C4FF6FF7707EA043640F6E0
:100FD000FF473A404FF6FF7707EA05273A434FF6B7
:100FE000FF7707EA03373A43D94FB8420ED0D94FBB
:100FF000B8420BD0B0F1804F08D0D74FB84205D0DF
:10100000D64FB84202D0D64FB84206D14DF6FF7740
:10101000394046F48057394305E047F6FF573940D9
:1010200044F48057394382830184F0BD828B4FF6AC
:10103000F3731A408283828B0A4382837047F0B530
:101040000C461546002200210026078C4FF6FF6C47
:1010500007EA0C070784828B018C4FF6FF7707EABB
:1010600004264FF60C773A404FF6FF7707EA03174E
:101070002F433A43B64FB8420ED0B64FB8420BD0CA
:10108000B0F1804F08D0B44FB84205D0B34FB8424A
:1010900002D0B34FB84206D14FF6FF57394046F45D
:1010A0008077394305E04FF2FF57394044F48077A9
:1010B000394382830184F0BD028B4FF2FF331A4023
:1010C0000283028B4FF6FF7303EA01231A43028364
:1010D0007047F0B50C461546002200210026078C0B
:1010E0004FF6EF7C07EA0C070784028B018C4FF662
:1010F000FF7707EA041640F6FF473A404FF6FF77BE
:1011000007EA03373A434FF6FF7707EA05273A43E2
:101110008F4FB8420ED08F4FB8420BD0B0F1804FF6
:1011200008D08D4FB84205D08C4FB84202D08C4FBA
:10113000B84206D14FF6DF77394046F01007394301
:1011400005E04FF65F77394044F0100739430283DA
:101150000184F0BD028B4FF6F3731A400283028BB9
:101160000A4302837047F0B50C4615460022002161
:10117000068C4FF6FE773E400684028B018C4FF6BC
:101180000C7632407E1C06EA03162E433243704E24
:10119000B0420ED06F4EB0420BD0B0F1804F08D0AD
:1011A0006D4EB04205D06D4EB04202D06C4EB04292
:1011B00006D14FF6FD76314044F00106314305E09B
:1011C0004FF6F576314044F0010631430283018445
:1011D000F0BD70B505460C465D4885420ED05D48B1
:1011E00085420BD0B5F1804F08D05B48854205D0D1
:1011F0005A48854202D05A48854200D100E000BFDB
:10120000208850B92389A28861882846FFF7ABFF60
:10121000E1882846FFF79EFF25E0208804280AD1B0
:101220002389A28861882846FFF753FFE188284672
:10123000FFF742FF17E0208808280AD12389A288F7
:1012400061882846FFF7FBFEE1882846FFF7EEFE9F
:1012500009E02389A28861882846FFF7A6FEE18875
:101260002846FFF795FE70BD2DE9F04105460C4676
:1012700000260127608808B9022600E00026A08821
:10128000012801D1022700E001272088A0B9238985
:10129000A28861882846FFF766FFE1882846FFF7A5
:1012A00059FF23893A4631462846FFF712FFE18865
:1012B0002846FFF701FF13E02389A28861882846AA
:1012C000FFF707FFE1882846FFF7F6FE23893A4635
:1012D00031462846FFF747FFE1882846FFF73AFFE7
:1012E000BDE8F0810A884B881A438B881A43CB8863
:1012F0001A430B891A434B891A438B891A43A0F866
:10130000442070474FF6FF71818000210180C18029
:101310004180017270470021018041808180C1803D
:10132000018141818181C18170470021018041801B
:10133000012181800021C18001817047002101804D
:1013400041808180C180018141818181704700009D
:10135000002C01400034014000040040000800401F
:10136000000C004021B1028842F00102028004E03A
:1013700002884FF6FE731A400280704731B1B0F810
:10138000442042F40042A0F8442005E0B0F8442094
:10139000C2F30E02A0F8442070471AB183890B43B0
:1013A000838102E083898B43838170478182704708
:1013B00041EA0203A0F8483070471AB183890B4311
:1013C000838102E083898B438381704701894FF6D3
:1013D000F8721140018170470A46002101894FF6D9
:1013E0008F73194011430181704730B504460D4693
:1013F00029462046FFF7F0FF208940F007002081B2
:1014000030BD2DE9F04104460D4616461F46602DBD
:1014100006D13B46012231462046FFF75AFE05E041
:101420003B46012231462046FFF79DFE29462046D5
:10143000FFF7D2FF208940F007002081BDE8F0814E
:1014400030B50C4600210189C9B24FF6FF7505EA97
:101450000325154325432943018130BD2DE9F04182
:1014600005460E4617469846002443463A463146FE
:101470002846FFF7E5FF2C894FF6F870044044F04A
:1014800007044FF68F70044044F070042C81BDE8CF
:10149000F081F0B504460D4616461F463B463246DF
:1014A00029462046FFF7CCFF208940F48040208168
:1014B000F0BD0185828270470A46002101884FF6FF
:1014C0008F731940114301807047F0B50C461546E3
:1014D0001E460021002200230189028B038C4FF657
:1014E000F877394021434FF6FC473A4040F2011764
:1014F0003A434FF6DD773B404FF6FF7707EA061792
:101500002F433B43018102830384F0BD0A4600213F
:10151000018B4FF68F7319401143018370470A46C0
:101520000021018B48F6FF7319404FF6FF7303EA61
:1015300002231943018370470A460021818B4FF62D
:101540008F7319401143818370470A460021818BB4
:1015500048F6FF7319404FF6FF7303EA022319435D
:101560008183704721B1028842F08002028004E04A
:1015700002884FF67F731A400280704721B182883B
:1015800042F00402828004E082884FF6FB731A4026
:101590008280704721B1828842F00802828004E094
:1015A00082884FF6F7731A408280704721B1828893
:1015B00042F00102828004E082884FF6FE731A40F6
:1015C000828070470A460021018B4FF6F77319405D
:1015D0001143018370470A460021018B4FF2FF73CC
:1015E00019404FF6FF7303EA022319430183704742
:1015F0000A460021818B4FF6F7731940114381830E
:1016000070470A460021818B4FF2FF7319404FF655
:10161000FF7303EA02231943818370470A460021BE
:10162000018B4FF6FB7319401143018370470A4643
:101630000021018B4FF6FF3319404FF6FF7303EA89
:1016400002231943018370470A460021818B4FF61C
:10165000FB7319401143818370470A460021818B37
:101660004FF6FF3319404FF6FF7303EA0223194385
:10167000818370470A460021018B4FF67F73194022
:101680001143018370470A460021018BC1F30E010B
:101690004FF6FF7303EA02231943018370470A469A
:1016A0000021818B4FF67F7319401143818370476E
:1016B0000A460021818BC1F30E014FF6FF7303EA46
:1016C00002231943818370470A460021018C4FF69B
:1016D000FD7319401143018470470A460021018CB3
:1016E0004FF6F77319401143018470470A460021F1
:1016F000018C4FF6DF7319404FF6FF7303EA0213B4
:101700001943018470470A460021018C4FF67F730C
:1017100019404FF6FF7303EA02131943018470471F
:101720000A460021018C4FF6FF5319404FF6FF7314
:1017300003EA02231943018470470A460021018C01
:101740004FF2FF7319404FF6FF7303EA0223194368
:10175000018470470A460021018C4DF6FF73194041
:101760004FF6FF7303EA023319430184704730B523
:10177000002301248C40A3B2048C9C430484048C79
:1017800002FA01F5ADB22C43048430BD30B500231C
:1017900004248C40A3B2048C9C430484048C02FA7D
:1017A00001F5ADB22C43048430BD70B50346002072
:1017B00000241846183001258D40ACB21D8CA5437D
:1017C0001D8409B1082909D100EB6100056825F0E5
:1017D000700505600568154305600EE00D1FC5F333
:1017E0004E052844056825F4E045056005684FF678
:1017F000FF7606EA02263543056070BD21B10288F6
:1018000042F00202028004E002884FF6FD731A40A3
:101810000280704721B1028842F00402028004E095
:1018200002884FF6FB731A400280704721B182880C
:1018300042F08002828004E082884FF67F731A4073
:101840008280704702884FF6F7731A400280028840
:101850000A430280704782884FF68F731A40828055
:1018600082880A438280704702894FF6F8731A40D3
:10187000028102890A430281704702894FF67F7311
:101880001A40028102890A430281704781847047AD
:1018900081857047818670470187704781877047CF
:1018A000A0F84010704702884FF6FF431A400280AC
:1018B00002880A43028070470146888E70470146BD
:1018C000088F70470146888F70470146B1F8400085
:1018D00070470146888C70470146088D7047024664
:1018E0000020138A0B400BB1012000E0002070475C
:1018F000CA430282704730B502460020002300240C
:10190000158A05EA0103958905EA010413B10CB1B2
:10191000012000E0002030BDCA4302827047000071
:1019200001684FF6FE7211400160002101604160C4
:101930008160C1608D49884208D18C490839496865
:1019400041F00F01894A083A51608AE08749143111
:10195000884208D185490839496841F0F001834A35
:10196000083A51607DE081492831884208D17F4999
:101970000839496841F470617C4A083A516070E066
:101980007A493C31884208D178490839496841F49C
:101990007041764A083A516063E074495031884298
:1019A00008D172490839496841F470216F4A083AF0
:1019B000516056E06D496431884208D16B4908395D
:1019C000496841F47001694A083A516049E0674941
:1019D0007831884208D165490839496841F0706119
:1019E000624A083A51603CE06149884206D1011FD1
:1019F000096841F00F01021F116032E05C491431A7
:101A0000884208D15A49091F096841F0F001584A33
:101A1000121F116025E056492831884208D15449E7
:101A2000091F096841F47061514A121F116018E0E2
:101A30004F493C31884208D14D49091F096841F49A
:101A400070414B4A121F11600BE0494950318842E6
:101A500007D14749091F096841F47021444A121F00
:101A60001160704710B50022026847F6F0739A4380
:101A70000C6A8B6823430C6923434C6923438C69AC
:101A80002343CC6923434C6A23438C6A23431A4380
:101A90000260CB6843600B6883604B68C36010BD15
:101AA0000021016041608160C1600161416181612B
:101AB000C161016241628162704721B1026842F0F6
:101AC0000102026004E002684FF6FE731A400260F1
:101AD00070471AB103680B43036002E003688B434D
:101AE00003607047416070470146486880B27047A4
:101AF00001460020002201F080531BB11C4B083B23
:101B00001A6802E0194B083B1A6802EA01030BB19C
:101B1000012000E00020704700F0805119B1144905
:101B2000091F086002E01149083948607047014602
:101B30000020002201F080531BB10D4B083B1A68B6
:101B400002E00A4B083B1A6802EA01030BB10120CC
:101B500000E00020704700F0805119B10449091FCE
:101B6000086002E0014908394860704708000240F7
:101B70000804024008B50121242006F0DDF94FF4E5
:101B80008070ADF8000010208DF8030003208DF860
:101B900002006946094805F013FF4FF480710748B9
:101BA00005F0BBFF0420ADF800006946044805F0CD
:101BB00007FF0421024805F0B0FF08BD00080140FE
:101BC000001401404FF48071FD4A51614900516198
:101BD000FC490860802151611161890011617047E1
:101BE0004FF48071F64A116149005161F54908606E
:101BF00080215161116189001161704710B54FF06A
:101C00008830F0490C390860091D08600020ED4952
:101C100008608815EA490861400048614020486131
:101C2000E948808848F68911884202D1022005F0EF
:101C300056FDE448001F006884B24020E049086176
:101C4000C00008614FF03330DE490C390860091DCF
:101C500008604FF6FF70DB490860204610BD10B5E4
:101C600004460B462046FFF7ADFF4FF48070D44981
:101C7000086140004861D3480360802048610861E2
:101C80008000086110BD10B504462046FFF79AFF9A
:101C9000FFF7B4FF10BD00B5CB490889FFF792FFED
:101CA00000BD4FF48071C64A116149005161C549B8
:101CB000086080215161116189001161704730B560
:101CC000014601F01F04C1F34513CA0AE50205EB02
:101CD00043151544A8B230BD00BF011EA0F101029A
:101CE000D0B2FAD1704730B504460D46B648808868
:101CF00049F24131884205D0B348808845F210311D
:101D0000884240D1B0494889FFF75CFF4FF48070AA
:101D1000AB490861400048612012AA490860802050
:101D2000A7494861086180000861401008614000CF
:101D30004861E0B2A34908608020A1494861086178
:101D400080000861A0498889FFF73CFF4FF480704C
:101D50009B4908614000486128129A490860802028
:101D6000974948610861800008614010086140009F
:101D70004861E8B293490860802091494861086150
:101D8000800008618CE19048808846F60401884212
:101D900049D18D488079012804D18B480088401EA4
:101DA000001B84B288494889FFF70CFF4FF480700C
:101DB0008349086140004861201282490860802000
:101DC0007F49486108618000086140100861400057
:101DD0004861E0B27B490860802079494861086128
:101DE0008000086178498889FFF7ECFE4FF4807025
:101DF00073490861400048612812724908608020D8
:101E00006F49486108618000086140100861400026
:101E10004861E8B26B4908608020694948610861FF
:101E2000800008613CE16848808841F6631188427F
:101E30007ED16548807900283FD163480088401EE4
:101E4000001B84B260494889FFF7BCFE4FF48070E4
:101E50005B4908614000486100205A4908608020C1
:101E600057494861086180000861401008614000DE
:101E70004861002053490860802051494861086149
:101E800080000861401008614000486120124D49FF
:101E9000086080204A49486108618000086140105C
:101EA000086140004861E0B246490860802044492A
:101EB000486108618000086141E043494889FFF7B3
:101EC00081FE4FF480703E49086140004861201255
:101ED0003C49086080203A494861086180000861F7
:101EE0004010086140004861E0B236490860802037
:101EF0003349486108618000086140100861400072
:101F0000486131480088401E00122E490860802038
:101F10002B49486108618000086140100861400059
:101F2000486129480078401EC0B22649086000E098
:101F30004CE0802022494861086180000861224904
:101F40008889FFF73FFE4FF480701D49086140000B
:101F5000486128121B4908608020194948610861BE
:101F6000800008614010086140004861E8B21549EE
:101F700008608020124948610861800008614010B3
:101F800008614000486110484088401E00120D4919
:101F9000086080200A49486108618000086140109B
:101FA00008614000486108488078401EC0B2054979
:101FB00008608020024948610861800008616FE084
:101FC000001001400C0C01403C610020F748808863
:101FD00045F21051884250D1F4494889FFF7F2FD8B
:101FE0004FF48070F2490861400048612012F149C5
:101FF00008608020EE494861086180000861EB4973
:102000004989491C88B2FFF7DDFD4FF48070E8492B
:10201000086140004861E0B2E64908608020E44978
:102020004861086180000861E0498889FFF7CAFDBE
:102030004FF48070DE490861400048612812DD4994
:1020400008608020DA494861086180000861D7494A
:102050008989491C88B2FFF7B5FD4FF48070D449D7
:10206000086140004861E8B2D24908608020D04948
:10207000486108618000086112E0CC48807901283D
:1020800004D1CA480088401E001B84B2C749488951
:102090002146FFF7E4FDC54988892946FFF7DFFDA2
:1020A00030BD2DE9F04105460E46C0480088A842E3
:1020B00003DDBE484088B04202DC0020BDE8F0816C
:1020C00031462846FFF70FFEB848808849F2413173
:1020D000884211D0B548808846F6040188420BD06A
:1020E000B248808845F21031884205D0AF488088D8
:1020F00041F66311884203D12E20FFF763FD0DE006
:10210000AA48808845F21051884204D14FF43850D3
:10211000FFF758FD02E02220FFF754FD4FF0883012
:10212000A4490C390860091D08604FF6FF70A149E9
:10213000086088159E490861400048614020486158
:102140000220FFF7C9FD9B48001F006884B24020B1
:10215000974908619548808841F66311884210D1FB
:102160004FF40070924908614FF0333091490C39B7
:102170000860091D08604FF6FF708E490860204610
:102180009CE740208A4948610220FFF7A5FD894865
:10219000001F006884B24020854908618348808818
:1021A00049F2413188420BD08048808845F2103195
:1021B000884205D07D48808845F21051884213D16D
:1021C00040207B4948610220FFF786FD7948001FC7
:1021D00000681FFA80F8402075490861E7B24FF6A1
:1021E000FF7000EA07270DE07048808846F604017A
:1021F000884207D140206E49486108616D48001F40
:10220000006884B24FF40070694908614FF03330C0
:1022100068490C390860091D08604FF6FF70654970
:1022200008606248808849F22531884216D05F48AC
:10223000808844F23551884210D05C488088091F5C
:1022400088420BD05948808848F68911884205D0C9
:10225000564880884BF20551884201D120462DE72F
:102260005248808849F2413188420BD04F488088DB
:1022700045F21031884205D04C48808845F2105113
:10228000884207D1E012C002B91240EA411040EA88
:10229000E82013E72046FFF712FD0FE700B543489B
:1022A000808849F24131884211D04048808846F602
:1022B000040188420BD03D48808845F210318842A5
:1022C00005D03A48808841F66311884203D129201D
:1022D000FFF778FC0FE03548808845F210518842BE
:1022E00004D14FF42450FFF76DFC04E040F2731169
:1022F0000720FFF7B4FC00BD00B52C48808849F2E8
:102300004131884211D02948808846F6040188422C
:102310000BD02648808845F21031884205D02348EA
:10232000808841F66311884203D12820FFF74AFCD8
:102330000EE01E48808845F21051884204D14FF4C7
:102340002050FFF73FFC03E000210720FFF787FC48
:1023500000BDF0B505460024002714488079012807
:102360000BD11248808846F60401884205D00F48F8
:10237000808841F66311884208D10C48807920BBDF
:102380000A48808841F6631188421ED1082D1BD26D
:10239000DFE805F00406080A12141618062513E0F3
:1023A000072511E004250FE005250DE03C61002024
:1023B000001001400C0C0140012505E0002503E060
:1023C000032501E0022500BF00BFF848808849F2DC
:1023D0004131884217D0F548808846F6040188428A
:1023E00011D0F248808845F2103188420BD0EF4876
:1023F000808845F21051884205D0EC48808841F62B
:10240000631188427ED1082D1CD2DFE805F0040656
:10241000090C0F12151800BF14E044F0800411E0FD
:1024200044F040040EE044F0C0040BE044F020040B
:1024300008E044F0600405E044F0A00402E044F049
:10244000E00400BF00BFD948808845F2105188429F
:1024500002D14FF4585700E03627D448808845F21F
:10246000103188420DD0D148808845F21051884201
:1024700007D0CE48808841F66311884201D044F0ED
:102480000804CA48808846F60401884201D144F015
:10249000020421463846FFF7E2FBC448808841F633
:1024A000631188421DD004F0200068B1BF48008845
:1024B000BE494988884214DABC4806884088BB492E
:1024C0000880084646800CE0B8480088B74949882B
:1024D000884206DDB54806884088B4490880084629
:1024E0004680B248808845F2105188427ED1AF497B
:1024F0004889FFF767FB4FF48070AD4908614000E1
:10250000486100E029E10020AA4908608020A8492C
:102510004861086180000861A4494989491C88B262
:10252000FFF750FB4FF48070A149086140004861FB
:102530000020A049086080209D4948610861800012
:1025400008619A494989891C88B2FFF73BFB4FF41F
:102550008070974908614000486194480088401E97
:102560000012944908608020914948610861800008
:1025700008618E494989C91C88B2FFF723FB4FF4D3
:1025800080708B4908614000486188480078401E8F
:10259000C0B2884908608020854948610861800090
:1025A000086182498889FFF70DFB4FF480708049EC
:1025B00008614000486100207E49086080207C4915
:1025C000486108618000086178498989491C88B29E
:1025D000FFF7F8FA4FF480707549086140004861D0
:1025E0000020744908608020714900E034E04861AF
:1025F0000861800008616D498989891C88B2FFF7EC
:10260000E1FA4FF480706A49086140004861674808
:102610004088401E00126749086080206449486174
:1026200008618000086161498989C91C88B2FFF787
:10263000C9FA4FF480705E490861400048615B4808
:102640008078401EC0B25B490860802058494861CC
:10265000086180000861A7E054494889FFF7B2FA91
:102660004FF4807052490861400048610020514990
:10267000086080204E494861086180000861401070
:1026800008614000486100204A49086080204849AC
:10269000486108618000086140100861400048619D
:1026A00042480088401E001242490860802040498C
:1026B000486108618000086140100861400048617D
:1026C0003A480078401EC0B23A4908608020384934
:1026D000486108618000086134498889FFF772FA0F
:1026E0004FF4807032490861400048610020314950
:1026F000086080202E494861086180000861401010
:1027000008614000486100202A490860802028496B
:10271000486108618000086140100861400048611C
:1027200022484088401E001222490860802020492B
:1027300048610861800008614010086140004861FC
:102740001A488078401EC0B21A4908608020184993
:10275000486108618000086126E0082D1CD2DFE88E
:1027600005F004070A0D0F12151844F0300413E0A9
:1027700044F0100410E044F020040DE000BF0BE032
:1027800044F0380408E044F0280405E044F018045C
:1027900002E044F0080400BF00BF032744F4805463
:1027A00021463846FFF75BFAF0BD00003C6100208F
:1027B000001001400C0C014030B504460D4629467E
:1027C0002046FFF790FAFFF766FA4FF48070FE4953
:1027D000086140004861FD480088FD49086080208C
:1027E000F949486108618000086130BD70B5044650
:1027F0000D461646F748808849F24131884205D097
:10280000F448808845F21031884240D1F149488926
:10281000FFF7D8F94FF48070EB4908614000486138
:102820002012EB4908608020E74948610861800078
:1028300008614010086140004861E0B2E449086066
:102840008020E1494861086180000861E149888988
:10285000FFF7B8F94FF48070DB4908614000486128
:102860002812DB4908608020D74948610861800050
:1028700008614010086140004861E8B2D44908602E
:102880008020D14948610861800008613DE1D1485C
:10289000808845F21051884250D1CE494889FFF7CF
:1028A00091F94FF48070C8490861400048612012D6
:1028B000C74908608020C4494861086180000861F8
:1028C000C4494989491C88B2FFF77CF94FF48070EC
:1028D000BD49086140004861E0B2BD490860802000
:1028E000B9494861086180000861BA498889FFF7E1
:1028F00069F94FF48070B4490861400048612812BA
:10290000B34908608020B0494861086180000861CF
:10291000B0498989491C88B2FFF754F94FF4807097
:10292000A949086140004861E8B2A94908608020CF
:10293000A5494861086180000861E6E0A5488088F3
:1029400041F6631188427DD1A248807920B9A1481F
:102950000088401E001B84B29E494889FFF732F967
:102960004FF48070984908614000486120129849EE
:102970000860802094494861086180000861401027
:10298000086140004861E0B29149086080208E49AA
:10299000486108618000086140100861400048619A
:1029A00020128B49086080208749486108618000B7
:1029B00008614010086140004861E0B28449086045
:1029C00080208149486108618000086181498889C7
:1029D000FFF7F8F84FF480707B49086140004861C8
:1029E00028127B490860802077494861086180008F
:1029F00008614010086140004861E8B2744908600D
:102A000080207149486108618000086140100861B8
:102A10004000486128126E49086080206A49486178
:102A20000861800008614010086140004861E8B218
:102A30006749086080206449486108618000086136
:102A400063E0FFE76348808846F60401884249D185
:102A500060488079012804D15E480088401E001B30
:102A600084B25C494889FFF7ADF84FF4807056494D
:102A70000861400048612012554908608020524991
:102A800048610861800008614010086140004861A9
:102A9000E0B24F49086080204B49486108618000DE
:102AA00008614C498889FFF78DF84FF480704649DA
:102AB0000861400048612812454908608020424969
:102AC0004861086180000861401008614000486169
:102AD000E8B23F49086080203B49486108618000B6
:102AE000086112E03B488079012804D13948008808
:102AF000401E001B84B2374948892146FFF7AFF8D2
:102B0000344988892946FFF7AAF84FF480702E4986
:102B10004861400048612F4800892D4908608020A5
:102B2000294948610861800008614010086140003F
:102B3000486127480660802048610861800008617C
:102B400070BD2DE9F0410446BE20FFF73BF84FF47D
:102B500080701D4908614000486105201C490860DB
:102B600080201949486108618000086140100861AF
:102B700040004861204607F075FC05464FF066327C
:102B8000154B07F0BFFC074607F028FC104908600A
:102B900080200D494861086180000861401008618B
:102BA0004000486101200A490860802006494861C8
:102BB0000861800008614010086140004861FF2002
:102BC00003490860802009E00010014094100020B3
:102BD0000C0C01403C61002066660440FE494861DF
:102BE00008618000086140100861400048610020D1
:102BF000FA4908608020F84948610861800008614E
:102C000040100861400048610020F44908608020BD
:102C1000F1494861086180000861BDE8F08110B5A4
:102C20000446002C66D1EE498871F02008804FF4EC
:102C3000A07048800846808849F2413188420BD014
:102C4000E748808846F60401884205D0E448808839
:102C500045F2103188421AD12C20E14908812A20FE
:102C600048812B2088810846808846F604018842E6
:102C700005D0DB48808845F21031884206D14FF4F8
:102C8000A070D74908804FF4F0704880A1E0D44884
:102C9000808845F21051884210D14FF43050D0490D
:102CA00008814FF4285048814FF42C5088814FF40C
:102CB000F07008804FF4487048808AE0C8488088E7
:102CC00041F6631188420DD12C20C54908812B2083
:102CD00048812A2088814FF4F07008804FF44870B2
:102CE000488076E02220BE490881202048812120AA
:102CF00088816EE00120BA4988714FF4A070088085
:102D0000F02048800846808849F24131884205D049
:102D1000B348808845F21031884207D12C20B04951
:102D200008812A2048812B2088813FE0AC48808898
:102D300046F60401884207D12C20A94908812B209E
:102D400048812A20888131E0A548808845F21051C9
:102D5000884210D14FF43050A14908814FF42850D7
:102D600048814FF42C5088814FF4487008804FF40C
:102D7000F07048801AE09A48808841F663118842D2
:102D80000DD12C20964908812A2048812B2088814A
:102D90004FF4487008804FF4F070488006E022201D
:102DA0008F49088121204881202088818C48808893
:102DB00046F60401884205D08948808845F21031E2
:102DC000884206D14FF4F070854908804FF4A07016
:102DD00048800020FFF7BDFA10BD2DE9F04F86B006
:102DE00004460D469046994604EB0800401E86B204
:102DF00005EB0900401E87B27948808849F24131CD
:102E0000884215D07648808845F2103188420FD02C
:102E10007348808846F60401884209D0704880795A
:102E200001287BD16E48808841F66311884275D1B4
:102E30006B494889FEF7C6FE4FF480706649086109
:102E4000400048612012654908608020624948615D
:102E50000861800008614010086140004861E0B2EC
:102E60005E49086080205C49486108618000086113
:102E700040100861400048613012584908608020C5
:102E800055494861086180000861401008614000B0
:102E90004861F0B25149086080204F49486108619B
:102EA000800008614E498889FEF78CFE4FF48070DF
:102EB000494908614000486128124849086080205B
:102EC0004549486108618000086140100861400080
:102ED0004861E8B24149086080203F494861086183
:102EE00080000861401008614000486138123B4989
:102EF00008608020384948610861800008614010FE
:102F0000086140004861F8B23449086080203249C5
:102F1000486108618000086177E1FFE730488088F8
:102F200041F6631188427DD12D480088A0EB08004E
:102F3000001B84B205EB0900401E1FFA80F92849E6
:102F40004889FEF73FFE4FF4807023490861400036
:102F5000486120122149086080201F4948610861AA
:102F6000800008614010086140004861E0B21B49E0
:102F7000086080201849486108618000086140109D
:102F800008614000486104EB0800401E001213492C
:102F90000860802010494861086180000861401085
:102FA00008614000486104EB0800401EC0B20B49B4
:102FB000086080200849486108618000086108496C
:102FC0008889FEF7FFFD4FF48070034908614000D7
:102FD00048612812014905E0001001400C0C014035
:102FE0003C61002008608020FE4948610861800043
:102FF00008614010086140004861E8B2FA49086081
:103000008020F8494861086180000861401008612B
:10301000400048614FEA2920F34908608020F149C7
:10302000486100E011E0086180000861401008611B
:103030004000486109F0FF00EB4908608020E94941
:103040004861086180000861DFE0E848808845F257
:10305000105188427ED1E5494889FEF7B3FD4FF40F
:103060008070E0490861400048612012DE49086034
:103070008020DC494861086180000861DB4949899A
:10308000491C88B2FEF79EFD4FF48070D549086157
:1030900040004861E0B2D44908608020D1494861CD
:1030A000086180000861D1494989891C88B2FEF70E
:1030B00089FD4FF48070CB490861400048613012AF
:1030C000C94908608020C7494861086180000861DB
:1030D000C6494989C91C88B2FEF774FD4FF4807057
:1030E000C049086140004861F0B2BF4908608020D3
:1030F000BC494861086180000861BC498889FEF7C5
:1031000061FD4FF48070B7490861400048612812A2
:10311000B54908608020B3494861086180000861B2
:10312000B2498989491C88B2FEF74CFD4FF4807082
:10313000AC49086140004861E8B2AB4908608020B2
:10314000A8494861086180000861A8498989891CEB
:1031500088B200E026E0FEF735FD4FF48070A1490B
:1031600008614000486138129F49086080209D49ED
:1031700048610861800008619C498989C91C88B23E
:10318000FEF720FD4FF480709649086140004861C9
:10319000F8B2954908608020924948610861800032
:1031A000086132E09148807901280ED1AA46BB46D9
:1031B0008E480088801B401E80B201908B4800889A
:1031C000001B401E80B2009003E0A246B34601956A
:1031D00000975020059051200490522003905320D6
:1031E000029051460598FEF73AFD59460498FEF7BD
:1031F00036FD01990398FEF732FD00990298FEF71B
:103200002EFD29462046FEF76EFD06B0BDE8F08F84
:1032100070B50446002675480588408845437348C4
:10322000808846F60401884216D1704880790128CA
:1032300012D100206D4988712A2048812B20888175
:1032400000210846FEF74FFD0120684988712B20B8
:1032500048812A20888103E000210846FEF743FDCB
:10326000FEF719FD00260DE04FF480705D490861FE
:10327000400048615C48046080204861086180002B
:103280000861761CAE42EFD370BD08B5012119204C
:1032900004F052FE0121564804F063FC4FF4F8603C
:1032A000ADF8000010208DF8030003208DF8020017
:1032B00069464C4804F084FB4FF4F861494804F037
:1032C0002CFC4FF6FF70ADF80000694646480C38FC
:1032D00004F076FB4FF6FF7143480C3804F01DFCF8
:1032E000322004F020FA01210020FEF7B8FC322041
:1032F00004F019FA0020FEF7C6FC3C498880084615
:103300008088FF280ADB084680884FF6FF718842D4
:1033100004D036488088B0F5134F62D1D320FEF731
:1033200051FCFEF76BFCFEF769FCFEF767FC2F49CA
:103330008880084680884FF6FF7101EA00202B49FB
:103340008880FEF75BFC29498988084327498880E3
:103350000846808849F24131884242D0BF20FEF7BA
:1033600031FCFEF74BFCFEF749FCFEF747FCFEF78D
:1033700045FC1E498880084680884FF6FF7101EAA7
:1033800000201A498880FEF739FC184989880843CB
:10339000164988800846808846F6040188427CD019
:1033A000D420FEF70FFCFEF729FCFEF727FCFEF702
:1033B00025FC0E498880084680884FF6FF7101EA97
:1033C00000200A498880FEF719FC084989880843CB
:1033D000064988800846808845F2103188425CD0D2
:1033E00008E05AE0001001400C0C01403C61002054
:1033F000000230004FF45A40FEF7E4FBFEF7FEFBFC
:103400004FF45B40FEF7DEFBFEF7F8FBFE498880D9
:10341000084680884FF6FF7101EA0020FA4988804B
:103420004FF45C40FEF7CEFBFEF7E8FBF6498988D7
:103430000843F549888008468088B0F5004F02D1DE
:1034400045F210508880F048808845F2105188423B
:1034500023D0A120FEF7B6FBFEF7D0FBEA49888017
:10346000FEF7CCFBE8498880084680884FF6FF715C
:1034700001EA0020E4498880FEF7C0FBE249898820
:103480000843E14988800846808845F26171884296
:1034900003D141F66310DC498880DB488188DBA0DA
:1034A00006F000FCD848808849F2413188427CD13E
:1034B000CF20FEF787FB0020FEF792FBC120FEF72E
:1034C0008FFB3020FEF78CFBED20FEF77BFB6420AA
:1034D000FEF786FB0320FEF783FB1220FEF780FB3E
:1034E0008120FEF77DFBE820FEF76CFB8520FEF7D0
:1034F00077FB1020FEF774FB7A20FEF771FBCB20E0
:10350000FEF760FB3920FEF76BFB2C20FEF768FB13
:103510000020FEF765FB3420FEF762FB0220FEF779
:103520005FFBF720FEF74EFB2020FEF759FBEA2059
:10353000FEF748FB0020FEF753FB0020FEF750FB90
:10354000C020FEF73FFB1B20FEF74AFBC120FEF721
:1035500039FB0120FEF744FBC520FEF733FB30208A
:10356000FEF73EFB3020FEF73BFBC720FEF72AFBB1
:10357000B720FEF735FB3620FEF724FB4820FEF788
:103580002FFB3A20FEF71EFB5520FEF729FBB1204A
:10359000FEF718FB0020FEF723FB1A20FEF720FBA6
:1035A000B620FEF70FFB0A2000E099E0FEF718FBBB
:1035B000A220FEF715FBF220FEF704FB0020FEF729
:1035C0000FFB2620FEF7FEFA0120FEF709FBE020A4
:1035D000FEF7F8FA0F20FEF703FB2A20FEF700FBA8
:1035E0002820FEF7FDFA0820FEF7FAFA0E20FEF773
:1035F000F7FA0820FEF7F4FA5420FEF7F1FAA920B2
:10360000FEF7EEFA4320FEF7EBFA0A20FEF7E8FA9F
:103610000F20FEF7E5FA0020FEF7E2FA0020FEF7A1
:10362000DFFA0020FEF7DCFA0020FEF7D9FAE120ED
:10363000FEF7C8FA0020FEF7D3FA1520FEF7D0FAFD
:103640001720FEF7CDFA0720FEF7CAFA1120FEF781
:10365000C7FA0620FEF7C4FA2B20FEF7C1FA56205F
:10366000FEF7BEFA3C20FEF7BBFA0520FEF7B8FADB
:103670001020FEF7B5FA0F20FEF7B2FA3F20FEF752
:10368000AFFA3F20FEF7ACFA0F20FEF7A9FA2B2085
:10369000FEF798FA0020FEF7A3FA0020FEF7A0FA42
:1036A0000120FEF79DFA3F20FEF79AFA2A20FEF746
:1036B00089FA0020FEF794FA0020FEF791FA002024
:1036C000FEF78EFAEF20FEF78BFA1120FEF77AFA5A
:1036D000782004F028F82920FEF774FA03F0A5BB3F
:1036E0004948808846F6040188427CD11120FEF7C3
:1036F00069FA142004F017F8D020FEF763FA0720C7
:10370000FEF76EFA4220FEF76BFA1D20FEF768FA0C
:10371000D120FEF757FA0020FEF762FA1A20FEF7D2
:103720005FFA0920FEF75CFAD220FEF74BFA01207F
:10373000FEF756FA2220FEF753FAC020FEF742FAAF
:103740001020FEF74DFA3B20FEF74AFA0020FEF764
:1037500047FA0220FEF744FA1120FEF741FAC5208D
:10376000FEF730FA0320FEF73BFAC820FEF72AFAEC
:103770000020FEF735FA2520FEF732FA2120FEF769
:103780002FFA0520FEF72CFA0020FEF729FA0A206E
:10379000FEF726FA6520FEF723FA2520FEF720FA29
:1037A0007720FEF71DFA5020FEF71AFA0F20FEF7D9
:1037B00017FA0020FEF714FAF820FEF703FA0120AA
:1037C000FEF70EFAFE20FEF7FDF90020FEF708FADC
:1037D0000220FEF705FA2020FEF7F4F93620FEF766
:1037E000F1F9082000E037E0FEF7FAF93A20FEF799
:1037F000E9F95520FEF7F4F92B20FEF7E3F9002054
:10380000FEF7EEF9002009E03C610020204C434423
:103810002049443A25780D0A00000000FEF7E0F93F
:103820000120FEF7DDF93F20FEF7DAF92A20FEF746
:10383000C9F90020FEF7D4F90020FEF7D1F90120E4
:10384000FEF7CEF9DF20FEF7CBF9782003F06BFF0F
:103850002920FEF7B7F941E7FE48808845F210318C
:10386000884240F07C87ED20FEF7ACF90120FEF79E
:10387000B7F9FE20FEF7B4F9EE20FEF7A3F9DE203B
:10388000FEF7AEF92120FEF7ABF9F120FEF79AF929
:103890000120FEF7A5F9DF20FEF794F91020FEF7CE
:1038A0009FF9C420FEF78EF98F20FEF799F9C62004
:1038B000FEF788F90020FEF793F9E220FEF790F971
:1038C000E220FEF78DF9E220FEF78AF9BF20FEF72D
:1038D00079F9AA20FEF784F9B020FEF773F90D20DC
:1038E000FEF77EF90020FEF77BF90D20FEF778F950
:1038F0000020FEF775F91120FEF772F90020FEF79F
:103900006FF91920FEF76CF90020FEF769F9212004
:10391000FEF766F90020FEF763F92D20FEF760F947
:103920000020FEF75DF93D20FEF75AF90020FEF772
:1039300057F95D20FEF754F90020FEF751F95D209C
:10394000FEF74EF90020FEF74BF9B120FEF73AF9E9
:103950008020FEF745F90020FEF742F98B20FEF7A4
:103960003FF90020FEF73CF99620FEF739F90020D8
:10397000FEF736F9B220FEF725F90020FEF730F900
:103980000020FEF72DF90220FEF72AF90020FEF7AD
:1039900027F90320FEF724F90020FEF721F9B320D0
:1039A000FEF710F90020FEF71BF90020FEF718F9CA
:1039B0000020FEF715F90020FEF712F90020FEF7AF
:1039C0000FF90020FEF70CF90020FEF709F900209E
:1039D000FEF706F90020FEF703F90020FEF700F9D4
:1039E0000020FEF7FDF80020FEF7FAF80020FEF7B1
:1039F000F7F80020FEF7F4F80020FEF7F1F80020B9
:103A0000FEF7EEF80020FEF7EBF80020FEF7E8F8EE
:103A10000020FEF7E5F80020FEF7E2F80020FEF7B0
:103A2000DFF80020FEF7DCF80020FEF7D9F80020D0
:103A3000FEF7D6F8B420FEF7C5F88B20FEF7D0F8D5
:103A40000020FEF7CDF89620FEF7CAF80020FEF71A
:103A5000C7F8A120FEF7C4F80020FEF7C1F8B52092
:103A6000FEF7B0F80220FEF7BBF80020FEF7B8F82A
:103A70000320FEF7B5F80020FEF7B2F80420FEF7A9
:103A8000AFF80020FEF7ACF8B620FEF79BF8002058
:103A9000FEF7A6F80020FEF7A3F8B720FEF792F88D
:103AA0000020FEF79DF80020FEF79AF83F20FEF771
:103AB00097F80020FEF794F85E20FEF791F80020BA
:103AC000FEF78EF86420FEF78BF80020FEF788F8EA
:103AD0008C20FEF785F80020FEF782F8AC20FEF778
:103AE0007FF80020FEF77CF8DC20FEF779F8002054
:103AF000FEF776F87020FEF773F80020FEF770F8F6
:103B00009020FEF76DF80020FEF76AF8EB20FEF734
:103B100067F80020FEF764F8DC20FEF761F800206B
:103B2000FEF75EF8B820FEF74DF80020FEF758F8D3
:103B30000020FEF755F80020FEF752F80020FEF7AF
:103B40004FF80020FEF74CF80020FEF749F800205F
:103B5000FEF746F80020FEF743F8BA20FEF732F8E9
:103B60002420FEF73DF80020FEF73AF80020FEF78B
:103B700037F80020FEF734F8C120FEF723F82020A4
:103B8000FEF72EF80020FEF72BF85420FEF728F859
:103B90000020FEF725F8FF20FEF722F80020FEF7B0
:103BA0001FF8C220FEF70EF80A20FEF719F80020D1
:103BB000FEF716F80420FEF713F80020FEF710F8C1
:103BC000C320FDF7FFFF3C20FEF70AF80020FEF7B8
:103BD00007F83A20FEF704F80020FEF701F8392034
:103BE000FDF7FEFF0020FDF7FBFF3720FDF7F8FF94
:103BF0000020FDF7F5FF3C20FDF7F2FF0020FDF768
:103C0000EFFF3620FDF7ECFF0020FDF7E9FF322043
:103C1000FDF7E6FF0020FDF7E3FF2F20FDF7E0FFB3
:103C20000020FDF7DDFF2C20FDF7DAFF0020FDF777
:103C3000D7FF2920FDF7D4FF0020FDF7D1FF262074
:103C4000FDF7CEFF0020FDF7CBFF2420FDF7C8FFD6
:103C5000002001E03C610020FDF7C2FF2420FDF7B9
:103C6000BFFF0020FDF7BCFF2320FDF7B9FF0020B8
:103C7000FDF7B6FF3C20FDF7B3FF0020FDF7B0FFD6
:103C80003620FDF7ADFF0020FDF7AAFF3220FDF73B
:103C9000A7FF0020FDF7A4FF2F20FDF7A1FF0020C4
:103CA000FDF79EFF2C20FDF79BFF0020FDF798FFFE
:103CB0002920FDF795FF0020FDF792FF2620FDF754
:103CC0008FFF0020FDF78CFF2420FDF789FF0020E7
:103CD000FDF786FF2420FDF783FF0020FDF780FF1E
:103CE0002320FDF77DFF0020FDF77AFFC420FDF7BC
:103CF00069FF6220FDF774FF0020FDF771FF0520CA
:103D0000FDF76EFF0020FDF76BFF8420FDF768FFD5
:103D10000020FDF765FFF020FDF762FF0020FDF7B2
:103D20005FFF1820FDF75CFF0020FDF759FFA4207E
:103D3000FDF756FF0020FDF753FF1820FDF750FF59
:103D40000020FDF74DFF5020FDF74AFF0020FDF752
:103D500047FF0C20FDF744FF0020FDF741FF17202F
:103D6000FDF73EFF0020FDF73BFF9520FDF738FFF4
:103D70000020FDF735FFF320FDF732FF0020FDF7AF
:103D80002FFFE620FDF72CFF0020FDF729FFC520BF
:103D9000FDF718FF3220FDF723FF0020FDF720FF7D
:103DA0004420FDF71DFF0020FDF71AFF6520FDF7F9
:103DB00017FF0020FDF714FF7620FDF711FF00200C
:103DC000FDF70EFF8820FDF70BFF0020FDF708FF31
:103DD000C620FDF7F7FE2020FDF702FF0020FDF7CB
:103DE000FFFE1720FDF7FCFE0020FDF7F9FE012085
:103DF000FDF7F6FE0020FDF7F3FEC720FDF7E2FE1B
:103E00000020FDF7EDFE0020FDF7EAFE0020FDF7A3
:103E1000E7FE0020FDF7E4FEC820FDF7D3FE0020FA
:103E2000FDF7DEFE0020FDF7DBFE0020FDF7D8FEEB
:103E30000020FDF7D5FEC920FDF7C4FE0020FDF7E8
:103E4000CFFE0020FDF7CCFE0020FDF7C9FE0020CC
:103E5000FDF7C6FE0020FDF7C3FE0020FDF7C0FE03
:103E60000020FDF7BDFE0020FDF7BAFE0020FDF7A3
:103E7000B7FE0020FDF7B4FE0020FDF7B1FE0020E4
:103E8000FDF7AEFE0020FDF7ABFE0020FDF7A8FE1B
:103E90000020FDF7A5FE0020FDF7A2FEE020FDF7C3
:103EA00091FE1620FDF79CFE0020FDF799FE1C20D8
:103EB000FDF796FE0020FDF793FE2120FDF790FE12
:103EC0000020FDF78DFE3620FDF78AFE0020FDF76D
:103ED00087FE4620FDF784FE0020FDF781FE52207C
:103EE000FDF77EFE0020FDF77BFE6420FDF778FEE7
:103EF0000020FDF775FE7A20FDF772FE0020FDF729
:103F00006FFE8B20FDF76CFE0020FDF769FE992007
:103F1000FDF766FE0020FDF763FEA820FDF760FEBA
:103F20000020FDF75DFEB920FDF75AFE0020FDF7E9
:103F300057FEC420FDF754FE0020FDF751FECA20B5
:103F4000FDF74EFE0020FDF74BFED220FDF748FEA8
:103F50000020FDF745FED920FDF742FE0020FDF7C9
:103F60003FFEE020FDF73CFE0020FDF739FEF32088
:103F7000FDF736FE0020FDF733FEE120FDF722FEBF
:103F80001620FDF72DFE0020FDF72AFE1C20FDF770
:103F900027FE0020FDF724FE2220FDF721FE002051
:103FA000FDF71EFE3620FDF71BFE0020FDF718FE74
:103FB0004520FDF715FE0020FDF712FE5220FDF70B
:103FC0000FFE0020FDF70CFE6420FDF709FE002027
:103FD000FDF706FE7A20FDF703FE0020FDF700FE48
:103FE0008B20FDF7FDFD0020FDF7FAFD9920FDF780
:103FF000F7FD0020FDF7F4FDA820FDF7F1FD0020FE
:10400000FDF7EEFDB920FDF7EBFD0020FDF7E8FD23
:10401000C420FDF7E5FD0020FDF7E2FDCA20FDF715
:10402000DFFD0020FDF7DCFDD220FDF7D9FD0020EB
:10403000FDF7D6FDD820FDF7D3FD0020FDF7D0FD1C
:10404000E020FDF7CDFD0020FDF7CAFDF320FDF7D0
:10405000C7FD0020FDF7C4FDE220FDF7B3FD0520FC
:10406000FDF7BEFD0020FDF7BBFD0B20FDF7B8FD01
:104070000020FDF7B5FD1B20FDF7B2FD0020FDF788
:10408000AFFD3420FDF7ACFD0020FDF7A9FD442075
:10409000FDF7A6FD0020FDF7A3FD4F20FDF7A0FDD5
:1040A0000020FDF79DFD6120FDF79AFD0020FDF742
:1040B00097FD7920FDF794FD0020FDF791FD882004
:1040C000FDF78EFD0020FDF78BFD9720FDF788FDA5
:1040D0000020FDF785FDA620FDF782FD0020FDF7FD
:1040E0007FFDB720FDF77CFD0020FDF779FDC220A4
:1040F000FDF776FD0020FDF773FDC720FDF770FD8D
:104100000020FDF76DFDD120FDF76AFD0020FDF7D1
:1041100067FDD620FDF764FD0020FDF761FDDD2081
:10412000FDF75EFD0020FDF75BFDF320FDF758FD78
:104130000020FDF755FDE320FDF744FD0520FDF7C8
:104140004FFD0020FDF74CFD0A20FDF749FD002042
:10415000FDF746FD1C20FDF743FD0020FDF740FD67
:104160003320FDF73DFD0020FDF73AFD4420FDF72B
:1041700037FD0020FDF734FD5020FDF731FD002014
:10418000FDF72EFD6220FDF72BFD0020FDF728FD39
:104190007820FDF725FD0020FDF722FD8820FDF7A2
:1041A0001FFD0020FDF71CFD9720FDF719FD0020E5
:1041B000FDF716FDA620FDF713FD0020FDF710FD0D
:1041C000B720FDF70DFD0020FDF70AFDC220FDF729
:1041D00007FD0020FDF704FDC720FDF701FD0020CD
:1041E000FDF7FEFCD120FDF7FBFC0020FDF7F8FCFD
:1041F000D520FDF7F5FC0020FDF7F2FCDD20FDF7F2
:10420000EFFC0020FDF7ECFCF320FDF7E9FC0020BB
:10421000FDF7E6FCE420FDF7D5FC0120FDF7E0FC0E
:104220000020FDF7DDFC0120FDF7DAFC0020FDF7A2
:10423000D7FC0220FDF7D4FC0020FDF7D1FC2A209A
:10424000FDF7CEFC0020FDF7CBFC3C20FDF7C8FCC1
:104250000020FDF7C5FC4B20FDF7C2FC0020FDF758
:10426000BFFC5D20FDF7BCFC0020FDF7B9FC74200D
:10427000FDF7B6FC0020FDF7B3FC8420FDF7B0FC91
:104280000020FDF7ADFC9320FDF7AAFC0020FDF710
:10429000A7FCA220FDF7A4FC0020FDF7A1FCB320A1
:1042A000FDF79EFC0020FDF79BFCBE20FDF798FC6F
:1042B0000020FDF795FCC420FDF792FC0020FDF7DF
:1042C0008FFCCD20FDF78CFC0020FDF789FCD3206E
:1042D000FDF786FC0020FDF783FCDD20FDF780FC68
:1042E0000020FDF77DFCF320FDF77AFC0020FDF7B0
:1042F00077FCE520FDF766FC0020FDF771FC00204F
:10430000FDF76EFC0020FDF76BFC0020FDF768FC5C
:104310000220FDF765FC0020FDF762FC2920FDF777
:104320005FFC0020FDF75CFC3C20FDF759FC002001
:10433000FDF756FC4B20FDF753FC0020FDF750FC29
:104340005D20FDF74DFC0020FDF74AFC7420FDF7D1
:1043500047FC0020FDF744FC8420FDF741FC0020D1
:10436000FDF73EFC9320FDF73BFC0020FDF738FCF9
:10437000A220FDF735FC0020FDF732FCB320FDF74D
:104380002FFC0020FDF72CFCBE20FDF729FC0020AF
:10439000FDF726FCC420FDF723FC0020FDF720FCE0
:1043A000CD20FDF71DFC0020FDF71AFCD320FDF702
:1043B00017FC0020FDF714FCDC20FDF711FC0020A9
:1043C000FDF70EFCF320FDF70BFC0020FDF708FCC9
:1043D000E620FDF7F7FB1120FDF702FC0020FDF7BA
:1043E000FFFB3420FDF7FCFB0020FDF7F9FB562016
:1043F000FDF7F6FB0020FDF7F3FB7620FDF7F0FB61
:104400000020FDF7EDFB7720FDF7EAFB0020FDF72C
:10441000E7FB6620FDF7E4FB0020FDF7E1FB8820C9
:10442000FDF7DEFB0020FDF7DBFB9920FDF7D8FB55
:104430000020FDF7D5FBBB20FDF7D2FB0020FDF7E8
:10444000CFFB9920FDF7CCFB0020FDF7C9FB6620D0
:10445000FDF7C6FB0020FDF7C3FB5520FDF7C0FBB1
:104460000020FDF7BDFB5520FDF7BAFB0020FDF74E
:10447000B7FB4520FDF7B4FB0020FDF7B1FB43205F
:10448000FDF7AEFB0020FDF7ABFB4420FDF7A8FBDA
:104490000020FDF7A5FBE720FDF794FB3220FDF798
:1044A0009FFB0020FDF79CFB5520FDF799FB0020AA
:1044B000FDF796FB7620FDF793FB0020FDF790FBC0
:1044C0006620FDF78DFB0020FDF78AFB6720FDF7D6
:1044D00087FB0020FDF784FB6720FDF781FB0020B0
:1044E000FDF77EFB8720FDF77BFB0020FDF778FBC7
:1044F0009920FDF775FB0020FDF772FBBB20FDF74F
:104500006FFB0020FDF76CFB9920FDF769FB002095
:10451000FDF766FB7720FDF763FB0020FDF760FBEE
:104520004420FDF75DFB0020FDF75AFB5620FDF708
:1045300057FB0020FDF754FB2320FDF751FB002023
:10454000FDF74EFB3320FDF74BFB0020FDF748FB4A
:104550004520FDF745FB0020FDF742FBE820FDF775
:1045600031FB0020FDF73CFB0020FDF739FB9920D3
:10457000FDF736FB0020FDF733FB8720FDF730FB0E
:104580000020FDF72DFB8820FDF72AFB0020FDF71A
:1045900027FB7720FDF724FB0020FDF721FB662099
:1045A000FDF71EFB0020FDF71BFB8820FDF718FB25
:1045B0000020FDF715FBAA20FDF712FB0020FDF7F8
:1045C0000FFBBB20FDF70CFB0020FDF709FB99203A
:1045D000FDF706FB0020FDF703FB6620FDF700FB5F
:1045E0000020FDF7FDFA5520FDF7FAFA0020FDF74F
:1045F000F7FA5520FDF7F4FA0020FDF7F1FA442010
:10460000FDF7EEFA0020FDF7EBFA4420FDF7E8FA9B
:104610000020FDF7E5FA5520FDF7E2FA0020FDF74E
:10462000DFFAE920FDF7CEFAAA20FDF7D9FA00203B
:10463000FDF7D6FA0020FDF7D3FA0020FDF7D0FAF7
:104640000020FDF7BFFAAA20FDF7CAFACF20FDF738
:10465000B9FA0020FDF7C4FA0020FDF7C1FA0020E6
:10466000FDF7BEFA0020FDF7BBFA0020FDF7B8FA0F
:104670000020FDF7B5FA0020FDF7B2FA0020FDF7A3
:10468000AFFA0020FDF7ACFA0020FDF7A9FA0020F0
:10469000FDF7A6FA0020FDF7A3FA0020FDF7A0FA27
:1046A0000020FDF79DFA0020FDF79AFA0020FDF7A3
:1046B00097FA0020FDF794FAF020FDF783FA002026
:1046C000FDF78EFA5020FDF78BFA0020FDF788FAEF
:1046D0000020FDF785FA0020FDF782FAF320FDF7B0
:1046E00071FA0020FDF77CFAF920FDF76BFA06203D
:1046F000FDF776FA1020FDF773FA2920FDF770FA1E
:104700000020FDF76DFA3A20FDF75CFA5520FDF721
:1047100067FA1120FDF756FA642003F004F8292007
:10472000FDF750FA3520FDF74DFA0020FDF758FA55
:104730005120FDF747FAFF20FDF752FA5320FDF70D
:1047400041FA2C20FDF74CFA5520FDF73BFA822068
:10475000FDF746FA2C20FDF735FA02F066BBFE485D
:10476000808845F2105188427ED155214FF4704027
:10477000FDF775FAAA214FF20100FDF770FA5221F8
:104780004FF20200FDF76BFA08214FF20300FDF72C
:1047900066FA01214FF20400FDF761FA0D214FF492
:1047A0003040FDF75CFA0D214BF20100FDF757FA9E
:1047B0000D214BF20200FDF752FA34214FF436403E
:1047C000FDF74DFA34214BF20160FDF748FA342130
:1047D0004BF20260FDF743FA0D214FF43140FDF733
:1047E0003EFA0D214BF20110FDF739FA0D214BF283
:1047F0000210FDF734FA34214FF43740FDF72FFA59
:1048000034214BF20170FDF72AFA34214BF2027089
:10481000FDF725FA00214FF43240FDF720FA002180
:104820004BF20120FDF71BFA00214BF20220FDF7AD
:1048300016FA24214FF43840FDF711FA24214BF6E3
:104840000100FDF70CFA24214BF60200FDF707FAF0
:1048500001214FF43F40FDF702FA0F214FF433409E
:10486000FDF7FDF90F2100E0FEE34BF20130FDF70B
:10487000F6F90F214BF20230FDF7F1F934214FF434
:104880003940FDF7ECF934214BF60110FDF7E7F95B
:1048900034214BF60210FDF7E2F908214FF43540C0
:1048A000FDF7DDF908214BF20150FDF7D8F9082199
:1048B0004BF20250FDF7D3F903214FF44240FDF7CC
:1048C000CEF924214FF43A40FDF7C9F924214BF6E3
:1048D0000120FDF7C4F924214BF60220FDF7BFF9B2
:1048E00000214FF43C40FDF7BAF978214BF6014026
:1048F000FDF7B5F900214BF60240FDF7B0F90021B4
:104900004FF43D40FDF7ABF978214BF60150FDF730
:10491000A6F900214BF60250FDF7A1F900214FF452
:104920003E40FDF79CF964214BF60160FDF797F9D5
:1049300000214FF45140FDF792F933214DF201105F
:10494000FDF78DF900214DF20210FDF788F93421B1
:104950004DF20310FDF783F900214DF20410FDF72D
:104960007EF93A214DF20510FDF779F900214DF25B
:104970000610FDF774F94A214DF20710FDF76FF9A3
:1049800000214DF20810FDF76AF95C214DF2091083
:10499000FDF765F900214DF20A10FDF760F981215C
:1049A0004DF20B10FDF75BF900214DF20C10FDF7F5
:1049B00056F9A6214DF20D10FDF751F900214DF2E7
:1049C0000E10FDF74CF9E5214DF20F10FDF747F9F8
:1049D00001214DF21010FDF742F913214DF2111093
:1049E000FDF73DF901214DF21210FDF738F9542180
:1049F0004DF21310FDF733F901214DF21410FDF7BC
:104A00002EF982214DF21510FDF729F901214DF201
:104A10001610FDF724F9CA214DF21710FDF71FF902
:104A200002214DF21810FDF71AF900214DF219106C
:104A3000FDF715F902214DF21A10FDF710F90121C9
:104A40004DF21B10FDF70BF902214DF21C10FDF782
:104A500006F934214DF21D10FDF701F902214DF246
:104A60001E10FDF7FCF867214DF21F10FDF7F7F857
:104A700002214DF22010FDF7F2F884214DF22110B1
:104A8000FDF7EDF802214DF22210FDF7E8F8A42120
:104A90004DF22310FDF7E3F802214DF22410FDF74B
:104AA000DEF8B7214DF22510FDF7D9F802214DF2BD
:104AB0002610FDF7D4F8CF214DF22710FDF7CFF8DF
:104AC00002214DF22810FDF7CAF8DE214DF229101F
:104AD000FDF7C5F802214DF22A10FDF7C0F8F221CA
:104AE0004DF22B10FDF7BBF802214DF22C10FDF713
:104AF000B6F8FE214DF22D10FDF7B1F803214DF26D
:104B00002E10FDF7ACF810214DF22F10FDF7A7F88D
:104B100003214DF23010FDF7A2F833214DF2311090
:104B2000FDF79DF803214DF23210FDF798F86D2145
:104B30004DF23310FDF793F800214FF45240FDF78A
:104B40008EF833214DF20120FDF789F800214DF256
:104B50000220FDF784F801E03C61002034214DF291
:104B60000320FDF77CF800214DF20420FDF777F8D3
:104B70003A214DF20520FDF772F800214DF2062092
:104B8000FDF76DF84A214DF20720FDF768F8002186
:104B90004DF20820FDF763F85C214DF20920FDF786
:104BA0005EF800214DF20A20FDF759F881214DF2FF
:104BB0000B20FDF754F800214DF20C20FDF74FF8C3
:104BC000A6214DF20D20FDF74AF800214DF20E20EE
:104BD000FDF745F8E5214DF20F20FDF740F80121E2
:104BE0004DF21020FDF73BF813214DF21120FDF797
:104BF00036F801214DF21220FDF731F854214DF223
:104C00001320FDF72CF801214DF21420FDF727F8B1
:104C100082214DF21520FDF722F801214DF21620D8
:104C2000FDF71DF8CA214DF21720FDF718F80221F3
:104C30004DF21820FDF713F800214DF21920FDF771
:104C40000EF802214DF21A20FDF709F801214DF26C
:104C50001B20FDF704F802214DF21C20FCF7FFFF9A
:104C600034214DF21D20FCF7FAFF02214DF21E20E7
:104C7000FCF7F5FF67214DF21F20FCF7F0FF022142
:104C80004DF22020FCF7EBFF84214DF22120FCF7B0
:104C9000E6FF02214DF22220FCF7E1FFA4214DF2B4
:104CA0002320FCF7DCFF02214DF22420FCF7D7FF84
:104CB000B7214DF22520FCF7D2FF02214DF226202C
:104CC000FCF7CDFFCF214DF22720FCF7C8FF0221D2
:104CD0004DF22820FCF7C3FFDE214DF22920FCF71E
:104CE000BEFF02214DF22A20FCF7B9FFF2214DF25E
:104CF0002B20FCF7B4FF02214DF22C20FCF7AFFF74
:104D0000FE214DF22D20FCF7AAFF03214DF22E20AB
:104D1000FCF7A5FF10214DF22F20FCF7A0FF032187
:104D20004DF23020FCF79BFF33214DF23120FCF790
:104D300096FF03214DF23220FCF791FF6D214DF2D9
:104D40003320FCF78CFF00214FF45340FCF787FF22
:104D500033214DF20130FCF782FF00214DF2023089
:104D6000FCF77DFF34214DF20330FCF778FF002182
:104D70004DF20430FCF773FF3A214DF20530FCF799
:104D80006EFF00214DF20630FCF769FF4A214DF21B
:104D90000730FCF764FF00214DF20830FCF75FFF9D
:104DA0005C214DF20930FCF75AFF00214DF20A3028
:104DB000FCF755FF81214DF20B30FCF750FF00212D
:104DC0004DF20C30FCF74BFFA6214DF20D30FCF7F5
:104DD00046FF00214DF20E30FCF741FFE5214DF278
:104DE0000F30FCF73CFF01214DF21030FCF737FF8C
:104DF00013214DF21130FCF732FF01214DF2123038
:104E0000FCF72DFF54214DF21330FCF728FF012150
:104E10004DF21430FCF723FF82214DF21530FCF7E0
:104E20001EFF01214DF21630FCF719FFCA214DF289
:104E30001730FCF714FF02214DF21830FCF70FFF7A
:104E400000214DF21930FCF70AFF02214DF21A3011
:104E5000FCF705FF01214DF21B30FCF700FF02219A
:104E60004DF21C30FCF7FBFE34214DF21D30FCF7F7
:104E7000F6FE02214DF21E30FCF7F1FE67214DF2E5
:104E80001F30FCF7ECFE02214DF22030FCF7E7FE6C
:104E900084214DF22130FCF7E2FE02214DF2223056
:104EA000FCF7DDFEA4214DF22330FCF7D8FE0221F1
:104EB0004DF22430FCF7D3FEB7214DF22530FCF73C
:104EC000CEFE02214DF22630FCF7C9FECF214DF275
:104ED0002730FCF7C4FE02214DF22830FCF7BFFE5C
:104EE000DE214DF22930FCF7BAFE02214DF22A30C4
:104EF000FCF7B5FEF2214DF22B30FCF7B0FE02219B
:104F00004DF22C30FCF7ABFEFE214DF22D30FCF7BC
:104F1000A6FE03214DF22E30FCF7A1FE10214DF22A
:104F20002F30FCF79CFE03214DF23030FCF797FE4A
:104F300033214DF23130FCF792FE03214DF2323035
:104F4000FCF78DFE6D214DF23330FCF788FE002119
:104F50004FF45440FCF783FE33214DF20140FCF73F
:104F60007EFE00214DF20240FCF779FE34214DF225
:104F70000340FCF774FE00214DF20440FCF76FFE85
:104F80003A214DF20540FCF76AFE00214DF2064041
:104F9000FCF765FE4A214DF20740FCF760FE002158
:104FA0004DF20840FCF75BFE5C214DF20940FCF736
:104FB00056FE00214DF20A40FCF751FE81214DF2D0
:104FC0000B40FCF74CFE00214DF20C40FCF747FE75
:104FD000A6214DF20D40FCF742FE00214DF20E409D
:104FE000FCF73DFEE5214DF20F40FCF738FE0121B4
:104FF0004DF21040FCF733FE13214DF21140FCF747
:105000002EFE01214DF21240FCF729FE54214DF2F3
:105010001340FCF724FE01214DF21440FCF71FFE63
:1050200082214DF21540FCF71AFE01214DF2164087
:10503000FCF715FECA214DF21740FCF710FE0221C5
:105040004DF21840FCF70BFE00214DF21940FCF721
:1050500006FE02214DF21A40FCF701FE01214DF23D
:105060001B40FCF7FCFD00E004E302214DF21C4074
:10507000FCF7F5FD34214DF21D40FCF7F0FD022157
:105080004DF21E40FCF7EBFD67214DF21F40FCF78F
:10509000E6FD02214DF22040FCF7E1FD84214DF2B6
:1050A0002140FCF7DCFD02214DF22240FCF7D7FD48
:1050B000A4214DF22340FCF7D2FD02214DF2244001
:1050C000FCF7CDFDB7214DF22540FCF7C8FD0221CC
:1050D0004DF22640FCF7C3FDCF214DF22740FCF7EF
:1050E000BEFD02214DF22840FCF7B9FDDE214DF254
:1050F0002940FCF7B4FD02214DF22A40FCF7AFFD38
:10510000F2214DF22B40FCF7AAFD02214DF22C407A
:10511000FCF7A5FDFE214DF22D40FCF7A0FD03217B
:105120004DF22E40FCF79BFD10214DF22F40FCF775
:1051300096FD03214DF23040FCF791FD33214DF2F5
:105140003140FCF78CFD03214DF23240FCF787FD26
:105150006D214DF23340FCF782FD00214FF45540A4
:10516000FCF77DFD33214DF20150FCF778FD002165
:105170004DF20250FCF773FD34214DF20350FCF761
:105180006EFD00214DF20450FCF769FD3A214DF20D
:105190000550FCF764FD00214DF20650FCF75FFD61
:1051A0004A214DF20750FCF75AFD00214DF20850FC
:1051B000FCF755FD5C214DF20950FCF750FD002134
:1051C0004DF20A50FCF74BFD81214DF20B50FCF7DC
:1051D00046FD00214DF20C50FCF741FDA6214DF299
:1051E0000D50FCF73CFD00214DF20E50FCF737FD51
:1051F000E5214DF20F50FCF732FD01214DF2105028
:10520000FCF72DFD13214DF21150FCF728FD012173
:105210004DF21250FCF723FD54214DF21350FCF7D0
:105220001EFD01214DF21450FCF719FD82214DF2B3
:105230001550FCF714FD01214DF21650FCF70FFD3F
:10524000CA214DF21750FCF70AFD02214DF2185009
:10525000FCF705FD00214DF21950FCF700FD02217D
:105260004DF21A50FCF7FBFC01214DF21B50FCF7EC
:10527000F6FC02214DF21C50FCF7F1FC34214DF2FA
:105280001D50FCF7ECFC02214DF21E50FCF7E7FC30
:1052900067214DF21F50FCF7E2FC02214DF2205035
:1052A000FCF7DDFC84214DF22150FCF7D8FC0221F3
:1052B0004DF22250FCF7D3FCA4214DF22350FCF711
:1052C000CEFC02214DF22450FCF7C9FCB7214DF26F
:1052D0002550FCF7C4FC02214DF22650FCF7BFFC20
:1052E000CF214DF22750FCF7BAFC02214DF2285095
:1052F000FCF7B5FCDE214DF22950FCF7B0FC022191
:105300004DF22A50FCF7ABFCF2214DF22B50FCF78A
:10531000A6FC02214DF22C50FCF7A1FCFE214DF21F
:105320002D50FCF79CFC03214DF22E50FCF797FC0E
:1053300010214DF22F50FCF792FC03214DF230501A
:10534000FCF78DFC33214DF23150FCF788FC032132
:105350004DF23250FCF783FC6D214DF23350FCF7D7
:105360007EFC00214FF45640FCF779FC33214DF2CE
:105370000160FCF774FC00214DF20260FCF76FFC49
:1053800034214DF20360FCF76AFC00214DF2046009
:10539000FCF765FC3A214DF20560FCF760FC00214A
:1053A0004DF20660FCF75BFC4A214DF20760FCF70A
:1053B00056FC00214DF20860FCF751FC5C214DF2D7
:1053C0000960FCF74CFC00214DF20A60FCF747FC39
:1053D00081214DF20B60FCF742FC00214DF20C6084
:1053E000FCF73DFCA6214DF20D60FCF738FC0021D6
:1053F0004DF20E60FCF733FCE5214DF20F60FCF737
:105400002EFC01214DF21060FCF729FC13214DF216
:105410001160FCF724FC01214DF21260FCF71FFC27
:1054200054214DF21360FCF71AFC01214DF2146077
:10543000FCF715FC82214DF21560FCF710FC0121F0
:105440004DF21660FCF70BFCCA214DF21760FCF719
:1054500006FC02214DF21860FCF701FC00214DF220
:105460001960FCF7FCFB02214DF21A60FCF7F7FB18
:1054700001214DF21B60FCF7F2FB02214DF21C6092
:10548000FCF7EDFB34214DF21D60FCF7E8FB022137
:105490004DF21E60FCF7E3FB67214DF21F60FCF745
:1054A000DEFB02214DF22060FCF7D9FB84214DF296
:1054B0002160FCF7D4FB02214DF22260FCF7CFFB08
:1054C000A4214DF22360FCF7CAFB02214DF22460B7
:1054D000FCF7C5FBB7214DF22560FCF7C0FB0221AC
:1054E0004DF22660FCF7BBFBCF214DF22760FCF7A5
:1054F000B6FB02214DF22860FCF7B1FBDE214DF234
:105500002960FCF7ACFB02214DF22A60FCF7A7FBF7
:10551000F2214DF22B60FCF7A2FB02214DF22C6030
:10552000FCF79DFBFE214DF22D60FCF798FB03215B
:105530004DF22E60FCF793FB10214DF22F60FCF72B
:105540008EFB03214DF23060FCF789FB33214DF2D5
:105550003160FCF784FB03214DF23260FCF77FFBE6
:105560006D214DF23360FCF77AFB55214FF470400A
:10557000FCF775FBAA214FF20100FCF770FB5221EA
:105580004FF20200FCF76BFB08214FF20300FCF71F
:1055900066FB00214FF20400FCF761FBCC214FF4C5
:1055A0003140FCF75CFB00214BF20110FCF757FB8C
:1055B00005214FF43640FCF752FB70214FF4374081
:1055C000FCF74DFB70214BF20170FCF748FB012109
:1055D0004FF43840FCF743FB03214BF60100FCF786
:1055E0003EFB03214BF60200FCF739FB03214BF68F
:1055F0000300FCF734FB02214FF43C40FCF72FFB87
:1056000000214BF60140FCF72AFB00214BF602403B
:10561000FCF725FBD0214FF44940FCF720FB022189
:105620004CF60110FCF71BFB50214CF60210FCF766
:1056300016FB50214CF60310FCF711FB50214CF6E1
:105640000410FCF70CFB00214FF45450FCF707FB4F
:1056500055214FF46850FCF702FB4FF48850FCF7DB
:10566000B1FA782002F03BF84FF42450FCF7AAFA84
:1056700001F0DBBBFE48808849F2253188427DD1AC
:1056800047F6F001E520FCF7EAFA4FF480710120BB
:10569000FCF7E5FA4FF4E0610220FCF7E0FA41F292
:1056A00030010320FCF7DBFA00210420FCF7D7FAD5
:1056B00040F202210820FCF7D2FA00210920FCF771
:1056C000CEFA00210A20FCF7CAFA00210C20FCF7D0
:1056D000C6FA00210D20FCF7C2FA00210F20FCF7CA
:1056E000BEFA00211020FCF7BAFA07211120FCF7BE
:1056F000B6FA00211220FCF7B2FA00211320FCF7C1
:10570000AEFA00210720FCF7AAFA41F290611020BE
:10571000FCF7A5FA40F227211120FCF7A0FA9D2101
:105720001220FCF79CFA4FF4C8511320FCF797FAAB
:1057300025212920FCF793FA0D212B20FCF78FFA65
:1057400007213020FCF78BFA40F203313120FCF7BF
:1057500086FA03213220FCF782FA40F20621352036
:10576000FCF77DFA08213620FCF779FA40F2064171
:105770003720FCF774FA4FF4417100E058E038200C
:10578000FCF76DFA07213920FCF769FA40F2026153
:105790003C20FCF764FA08213D20FCF760FA002168
:1057A0005020FCF75CFAEF215120FCF758FA002159
:1057B0005220FCF754FA40F23F115320FCF74FFA05
:1057C0004FF427416020FCF74AFA01216120FCF7E1
:1057D00046FA00216A20FCF742FA00218020FCF7FB
:1057E0003EFA00218120FCF73AFA00218220FCF7E2
:1057F00036FA00218320FCF732FA00218420FCF7DE
:105800002EFA00218520FCF72AFA10219020FCF7BF
:1058100026FA4FF4C0619220FCF721FA40F23311CE
:105820000720FCF71CFA22210020FCF718FA1FE7DA
:105830008F48808849F2283188427DD141F28F011A
:10584000EC20FCF70CFA41F23421EF20FCF707FAC8
:105850004FF480710120FCF702FA4FF4E06102205E
:10586000FCF7FDF941F230010320FCF7F8F90021C3
:105870000420FCF7F4F940F202210820FCF7EFF9CC
:1058800000210920FCF7EBF900210A20FCF7E7F9D9
:1058900001210C20FCF7E3F900210D20FCF7DFF9D2
:1058A00000210F20FCF7DBF900211020FCF7D7F9CD
:1058B00007211120FCF7D3F900211220FCF7CFF9C2
:1058C00000211320FCF7CBF901210720FCF7C7F9D1
:1058D000322001F028FF41F290411020FCF7BFF97F
:1058E00040F227211120FCF7BAF9322001F01BFF0A
:1058F0008A211220FCF7B3F9322001F014FF4FF493
:10590000D0511320FCF7ABF906212920FCF7A7F9A9
:105910000D212B20FCF7A3F9322001F004FF002118
:105920002020FCF79CF900212120FCF798F9322077
:1059300001F0F9FE002100E075E03020FCF78FF95E
:1059400040F204613120FCF78AF940F2053132203F
:10595000FCF785F900213520FCF781F940F6094173
:105960003620FCF77CF94FF401713720FCF777F90A
:1059700040F201313820FCF772F940F2077139200A
:10598000FCF76DF900213C20FCF769F940F60A218B
:105990003D20FCF764F9322001F0C5FE00215020C3
:1059A000FCF75DF9EF215120FCF759F90021522055
:1059B000FCF755F940F23F115320FCF750F94FF432
:1059C00027416020FCF74BF901216120FCF747F9E2
:1059D00000216A20FCF743F900218020FCF73FF901
:1059E00000218120FCF73BF900218220FCF737F9E8
:1059F00000218320FCF733F900218420FCF72FF9E4
:105A000000218520FCF72BF910219020FCF727F9C5
:105A10004FF4C0619220FCF722F940F233110720C5
:105A2000FCF71DF924E61248808849F220318842AB
:105A30007ED100210846FCF712F94FF48071012055
:105A4000FCF70DF94FF4E0610220FCF708F941F290
:105A500030010320FCF703F900210420FCF7FFF8D4
:105A600040F202210820FCF7FAF80021092001E0A9
:105A70003C610020FCF7F3F800210A20FCF7EFF866
:105A800001210C20FCF7EBF800210D20FCF7E7F8D2
:105A900000210F20FCF7E3F8322001F044FE40F231
:105AA00001110720FCF7DBF8322001F03CFE4FF437
:105AB00086511020FCF7D3F807211120FCF7CFF80E
:105AC0004FF488711220FCF7CAF84FF430611320AC
:105AD000FCF7C5F800212920FCF7C1F844F21001B9
